:1000000009C00EC00DC00CC00BC00AC009C008C09A
:1000100007C006C011241FBECFE9CDBF2FD0E3C15A
:10002000EFCF86BF869589BD089580E0FADF0895F9
:10003000E7E3F0E0808182608083EFE4F0E080E23B
:100040008083808181608083E3E5F0E088E08083C5
:10005000808183608083089582E087B980E886B9D3
:100060000895E6E2F0E0808180648083808186FDEF
:10007000FDCF24B135B1822F932F08952F923F9257
:100080004F925F926F927F928F929F92AF92BF92A8
:10009000CF92DF92EF92FF920F931F93CF93DF9354
:1000A000E7E3F0E0808188608083808184608083E2
:1000B000E8E3F0E08081877F8083808184608083B3
:1000C000B7DFCADF88249924AA24BB24EE24FF24A6
:1000D0000F2EF0EA2F2EFFE03F2EF02D0F2EF8E32B
:1000E000CF2EDD24F02D66247724C8ECD0E0A114B7
:1000F000B10449F0C70161D190E08C01000F111FDC
:10010000000F111F02C0ADDF8C0100381105C4F4CF
:10011000F6018081877F808388DF8114910409F450
:1001200017C1F60180818B7F808380E29EE4019776
:10013000F1F797DF8017910709F00AC1230108C181
:1001400081149104F9F04114510409F02EC1B80151
:10015000112314F46D5F7F4F7595679575956795BD
:10016000C70133D10894E11CF11CFDE3EF16F10443
:100170000CF418C1F6018081F4E08F27F60180832A
:1001800043017301F601808188608083F1E00733C9
:100190001F0734F524EF31E0CE010197F1F721502C
:1001A0003040D1F75EDF8017910709F0D1C0C3015D
:1001B000362D292F892821F481E090E0382F292F2E
:1001C000832F922F4C018114910421F4C7010196D1
:1001D00060E0FBD046DF81389105E4F77301B8C0D9
:1001E00081E0053518076CF58114910409F0B0C061
:1001F000C1010197F1F735DF9C0108171907A1F03C
:10020000C80101962817390779F0C8010197281706
:10021000390751F0C80102962817390729F0C8019B
:1002200002972817390741F4F60180818B7F80837C
:10023000AA24BB24A394730114DF81389105E4F749
:1002400087C0F1E008361F071CF48AEAEADE80C0A6
:1002500081E00D3718071CF481EAE3DE79C091E0F4
:10026000043819071CF488E9DCDE72C0E1E00339C8
:100270001E071CF48FE8D5DE6BC0F1E0033A1F07C0
:100280001CF487E8CEDE64C081E0053B18071CF44F
:1002900080E8C7DE5DC091E0083C19071CF489E7DF
:1002A000C0DE56C0E1E00E3D1E071CF482E7B9DE59
:1002B0004FC0F1E0053F1F071CF48BE6B2DE48C0DB
:1002C00082E00E3018071CF485E6ABDE41C092E0F8
:1002D0000B3219071CF480E6A4DE3AC0E2E00B34CE
:1002E0001E071CF48AE59DDE33C0F2E00E361F07C0
:1002F0001CF485E596DE2CC082E0063918071CF454
:1003000080E58FDE25C092E0043C19071CF48CE4E4
:1003100088DE1EC0E2E0093F1E071CF488E481DE8F
:1003200017C0F3E006331F071CF484E47ADE10C024
:1003300083E00D3718071CF480E473DE09C093E0F6
:10034000023D19071CF48CE36CDE02C089E369DE10
:10035000A114B10411F120ED37E0CE010197F1F7BE
:1003600021503040D1F761DE20ED37E0CE0101971A
:10037000F1F721503040D1F70894E11CF11CEDE376
:10038000EE16F1041CF4012B09F0B1CEF6018081C8
:100390008460808353017301AACE8EEF91E00197B0
:1003A000F1F7A5CE442455244394F601808188605A
:1003B0008083808184608083E9CEE199FECF1FBA7B
:1003C0008EBBE09A99278DB30895262FE199FECF31
:1003D0001CBA1FBA8EBB2DBB0FB6F894E29AE19AF5
:0A03E0000FBE01960895F894FFCFB8
:00000001FF
